{
  "_format": "hh-sol-artifact-1",
  "contractName": "MultiSigVault",
  "sourceName": "contracts/MultiSigVault.sol",
  "abi": [
    {
      "inputs": [
        {
          "internalType": "address[]",
          "name": "_signers",
          "type": "address[]"
        }
      ],
      "stateMutability": "nonpayable",
      "type": "constructor"
    },
    {
      "inputs": [],
      "name": "nonce",
      "outputs": [
        {
          "internalType": "uint256",
          "name": "",
          "type": "uint256"
        }
      ],
      "stateMutability": "view",
      "type": "function"
    },
    {
      "inputs": [
        {
          "components": [
            {
              "internalType": "uint256",
              "name": "amount",
              "type": "uint256"
            },
            {
              "internalType": "address",
              "name": "to",
              "type": "address"
            }
          ],
          "internalType": "struct MultiSigVault.WithdrawalInfo",
          "name": "_txn",
          "type": "tuple"
        },
        {
          "internalType": "uint256",
          "name": "_nonce",
          "type": "uint256"
        },
        {
          "internalType": "bytes[]",
          "name": "_multiSignature",
          "type": "bytes[]"
        }
      ],
      "name": "withDrawETH",
      "outputs": [],
      "stateMutability": "nonpayable",
      "type": "function"
    },
    {
      "stateMutability": "payable",
      "type": "receive"
    }
  ],
  "bytecode": "0x60806040523480156200001157600080fd5b5060405162001515380380620015158339818101604052810190620000379190620002cd565b805160028190555060005b600254811015620000d75760018060008484815181106200006857620000676200031e565b5b602002602001015173ffffffffffffffffffffffffffffffffffffffff1673ffffffffffffffffffffffffffffffffffffffff16815260200190815260200160002060006101000a81548160ff0219169083151502179055508080620000ce9062000386565b91505062000042565b5050620003d3565b6000604051905090565b600080fd5b600080fd5b600080fd5b6000601f19601f8301169050919050565b7f4e487b7100000000000000000000000000000000000000000000000000000000600052604160045260246000fd5b6200014382620000f8565b810181811067ffffffffffffffff8211171562000165576200016462000109565b5b80604052505050565b60006200017a620000df565b905062000188828262000138565b919050565b600067ffffffffffffffff821115620001ab57620001aa62000109565b5b602082029050602081019050919050565b600080fd5b600073ffffffffffffffffffffffffffffffffffffffff82169050919050565b6000620001ee82620001c1565b9050919050565b6200020081620001e1565b81146200020c57600080fd5b50565b6000815190506200022081620001f5565b92915050565b60006200023d62000237846200018d565b6200016e565b90508083825260208201905060208402830185811115620002635762000262620001bc565b5b835b818110156200029057806200027b88826200020f565b84526020840193505060208101905062000265565b5050509392505050565b600082601f830112620002b257620002b1620000f3565b5b8151620002c484826020860162000226565b91505092915050565b600060208284031215620002e657620002e5620000e9565b5b600082015167ffffffffffffffff811115620003075762000306620000ee565b5b62000315848285016200029a565b91505092915050565b7f4e487b7100000000000000000000000000000000000000000000000000000000600052603260045260246000fd5b7f4e487b7100000000000000000000000000000000000000000000000000000000600052601160045260246000fd5b6000819050919050565b600062000393826200037c565b91507fffffffffffffffffffffffffffffffffffffffffffffffffffffffffffffffff8203620003c857620003c76200034d565b5b600182019050919050565b61113280620003e36000396000f3fe60806040526004361061002d5760003560e01c80635372448c14610039578063affed0e01461006257610034565b3661003457005b600080fd5b34801561004557600080fd5b50610060600480360381019061005b9190610850565b61008d565b005b34801561006e57600080fd5b506100776100f8565b60405161008491906108d3565b60405180910390f35b600360009054906101000a900460ff16156100a757600080fd5b6001600360006101000a81548160ff0219169083151502179055506100ce848484846100fe565b6100d78461034a565b6000600360006101000a81548160ff02191690831515021790555050505050565b60005481565b6000548311610142576040517f08c379a00000000000000000000000000000000000000000000000000000000081526004016101399061094b565b60405180910390fd5b600082829050905060025481101561018f576040517f08c379a0000000000000000000000000000000000000000000000000000000008152600401610186906109b7565b60405180910390fd5b600061019b8686610410565b9050600080600090505b838110156103395760008686838181106101c2576101c16109d7565b5b90506020028101906101d49190610a15565b8080601f016020809104026020016040519081016040528093929190818152602001838380828437600081840152601f19601f820116905080830192505050505050509050600061022585836104c7565b90508373ffffffffffffffffffffffffffffffffffffffff168173ffffffffffffffffffffffffffffffffffffffff1611610295576040517f08c379a000000000000000000000000000000000000000000000000000000000815260040161028c90610ac4565b60405180910390fd5b600160008273ffffffffffffffffffffffffffffffffffffffff1673ffffffffffffffffffffffffffffffffffffffff16815260200190815260200160002060009054906101000a900460ff16610321576040517f08c379a000000000000000000000000000000000000000000000000000000000815260040161031890610b30565b60405180910390fd5b8093505050808061033190610b7f565b9150506101a5565b508560008190555050505050505050565b600081602001602081019061035f9190610c25565b73ffffffffffffffffffffffffffffffffffffffff16826000013560405161038690610c83565b60006040518083038185875af1925050503d80600081146103c3576040519150601f19603f3d011682016040523d82523d6000602084013e6103c8565b606091505b505090508061040c576040517f08c379a000000000000000000000000000000000000000000000000000000000815260040161040390610ce4565b60405180910390fd5b5050565b600080836040516020016104249190610d8f565b60405160208183030381529060405290508083604051602001610448929190610e31565b6040516020818303038152906040528051906020012091506040518060400160405280601c81526020017f19457468657265756d205369676e6564204d6573736167653a0a333200000000815250826040516020016104a8929190610ecb565b6040516020818303038152906040528051906020012091505092915050565b60008060006104d685856104ee565b915091506104e38161053f565b819250505092915050565b600080604183510361052f5760008060006020860151925060408601519150606086015160001a9050610523878285856106a5565b94509450505050610538565b60006002915091505b9250929050565b6000600481111561055357610552610ef3565b5b81600481111561056657610565610ef3565b5b03156106a257600160048111156105805761057f610ef3565b5b81600481111561059357610592610ef3565b5b036105d3576040517f08c379a00000000000000000000000000000000000000000000000000000000081526004016105ca90610f6e565b60405180910390fd5b600260048111156105e7576105e6610ef3565b5b8160048111156105fa576105f9610ef3565b5b0361063a576040517f08c379a000000000000000000000000000000000000000000000000000000000815260040161063190610fda565b60405180910390fd5b6003600481111561064e5761064d610ef3565b5b81600481111561066157610660610ef3565b5b036106a1576040517f08c379a00000000000000000000000000000000000000000000000000000000081526004016106989061106c565b60405180910390fd5b5b50565b6000807f7fffffffffffffffffffffffffffffff5d576e7357a4501ddfe92f46681b20a08360001c11156106e057600060039150915061077e565b60006001878787876040516000815260200160405260405161070594939291906110b7565b6020604051602081039080840390855afa158015610727573d6000803e3d6000fd5b505050602060405103519050600073ffffffffffffffffffffffffffffffffffffffff168173ffffffffffffffffffffffffffffffffffffffff16036107755760006001925092505061077e565b80600092509250505b94509492505050565b600080fd5b600080fd5b600080fd5b6000604082840312156107ac576107ab610791565b5b81905092915050565b6000819050919050565b6107c8816107b5565b81146107d357600080fd5b50565b6000813590506107e5816107bf565b92915050565b600080fd5b600080fd5b600080fd5b60008083601f8401126108105761080f6107eb565b5b8235905067ffffffffffffffff81111561082d5761082c6107f0565b5b602083019150836020820283011115610849576108486107f5565b5b9250929050565b6000806000806080858703121561086a57610869610787565b5b600061087887828801610796565b9450506040610889878288016107d6565b935050606085013567ffffffffffffffff8111156108aa576108a961078c565b5b6108b6878288016107fa565b925092505092959194509250565b6108cd816107b5565b82525050565b60006020820190506108e860008301846108c4565b92915050565b600082825260208201905092915050565b7f6e6f6e636520616c726561647920757365640000000000000000000000000000600082015250565b60006109356012836108ee565b9150610940826108ff565b602082019050919050565b6000602082019050818103600083015261096481610928565b9050919050565b7f6e6f7420656e6f756768207369676e6572730000000000000000000000000000600082015250565b60006109a16012836108ee565b91506109ac8261096b565b602082019050919050565b600060208201905081810360008301526109d081610994565b9050919050565b7f4e487b7100000000000000000000000000000000000000000000000000000000600052603260045260246000fd5b600080fd5b600080fd5b600080fd5b60008083356001602003843603038112610a3257610a31610a06565b5b80840192508235915067ffffffffffffffff821115610a5457610a53610a0b565b5b602083019250600182023603831315610a7057610a6f610a10565b5b509250929050565b7f506f737369626c65206475706c69636174650000000000000000000000000000600082015250565b6000610aae6012836108ee565b9150610ab982610a78565b602082019050919050565b60006020820190508181036000830152610add81610aa1565b9050919050565b7f6e6f742070617274206f6620636f6e736f727469756d00000000000000000000600082015250565b6000610b1a6016836108ee565b9150610b2582610ae4565b602082019050919050565b60006020820190508181036000830152610b4981610b0d565b9050919050565b7f4e487b7100000000000000000000000000000000000000000000000000000000600052601160045260246000fd5b6000610b8a826107b5565b91507fffffffffffffffffffffffffffffffffffffffffffffffffffffffffffffffff8203610bbc57610bbb610b50565b5b600182019050919050565b600073ffffffffffffffffffffffffffffffffffffffff82169050919050565b6000610bf282610bc7565b9050919050565b610c0281610be7565b8114610c0d57600080fd5b50565b600081359050610c1f81610bf9565b92915050565b600060208284031215610c3b57610c3a610787565b5b6000610c4984828501610c10565b91505092915050565b600081905092915050565b50565b6000610c6d600083610c52565b9150610c7882610c5d565b600082019050919050565b6000610c8e82610c60565b9150819050919050565b7f5472616e73666572206e6f742066756c66696c6c656400000000000000000000600082015250565b6000610cce6016836108ee565b9150610cd982610c98565b602082019050919050565b60006020820190508181036000830152610cfd81610cc1565b9050919050565b6000610d1360208401846107d6565b905092915050565b610d24816107b5565b82525050565b6000610d396020840184610c10565b905092915050565b610d4a81610be7565b82525050565b60408201610d616000830183610d04565b610d6e6000850182610d1b565b50610d7c6020830183610d2a565b610d896020850182610d41565b50505050565b6000604082019050610da46000830184610d50565b92915050565b600081519050919050565b60005b83811015610dd3578082015181840152602081019050610db8565b60008484015250505050565b6000610dea82610daa565b610df48185610c52565b9350610e04818560208601610db5565b80840191505092915050565b6000819050919050565b610e2b610e26826107b5565b610e10565b82525050565b6000610e3d8285610ddf565b9150610e498284610e1a565b6020820191508190509392505050565b600081519050919050565b600081905092915050565b6000610e7a82610e59565b610e848185610e64565b9350610e94818560208601610db5565b80840191505092915050565b6000819050919050565b6000819050919050565b610ec5610ec082610ea0565b610eaa565b82525050565b6000610ed78285610e6f565b9150610ee38284610eb4565b6020820191508190509392505050565b7f4e487b7100000000000000000000000000000000000000000000000000000000600052602160045260246000fd5b7f45434453413a20696e76616c6964207369676e61747572650000000000000000600082015250565b6000610f586018836108ee565b9150610f6382610f22565b602082019050919050565b60006020820190508181036000830152610f8781610f4b565b9050919050565b7f45434453413a20696e76616c6964207369676e6174757265206c656e67746800600082015250565b6000610fc4601f836108ee565b9150610fcf82610f8e565b602082019050919050565b60006020820190508181036000830152610ff381610fb7565b9050919050565b7f45434453413a20696e76616c6964207369676e6174757265202773272076616c60008201527f7565000000000000000000000000000000000000000000000000000000000000602082015250565b60006110566022836108ee565b915061106182610ffa565b604082019050919050565b6000602082019050818103600083015261108581611049565b9050919050565b61109581610ea0565b82525050565b600060ff82169050919050565b6110b18161109b565b82525050565b60006080820190506110cc600083018761108c565b6110d960208301866110a8565b6110e6604083018561108c565b6110f3606083018461108c565b9594505050505056fea2646970667358221220ee94a1f17d5da1abbfd2c414bffcdc5e5727de3853f989cc92b269b3da05391a64736f6c63430008110033",
  "linkReferences": {},
  "deployedLinkReferences": {}
}